{
  "contractName": "Voting",
  "abi": [
    {
      "anonymous": false,
      "inputs": [
        {
          "indexed": true,
          "internalType": "address",
          "name": "previousOwner",
          "type": "address"
        },
        {
          "indexed": true,
          "internalType": "address",
          "name": "newOwner",
          "type": "address"
        }
      ],
      "name": "OwnershipTransferred",
      "type": "event"
    },
    {
      "anonymous": false,
      "inputs": [
        {
          "indexed": false,
          "internalType": "uint8",
          "name": "proposalId",
          "type": "uint8"
        }
      ],
      "name": "ProposalRegistered",
      "type": "event"
    },
    {
      "anonymous": false,
      "inputs": [
        {
          "indexed": false,
          "internalType": "address",
          "name": "voter",
          "type": "address"
        },
        {
          "indexed": false,
          "internalType": "uint8",
          "name": "proposalId",
          "type": "uint8"
        }
      ],
      "name": "Voted",
      "type": "event"
    },
    {
      "anonymous": false,
      "inputs": [
        {
          "indexed": false,
          "internalType": "address",
          "name": "voterAddress",
          "type": "address"
        }
      ],
      "name": "VoterRegistered",
      "type": "event"
    },
    {
      "anonymous": false,
      "inputs": [
        {
          "indexed": false,
          "internalType": "enum Voting.WorkflowStatus",
          "name": "previousStatus",
          "type": "uint8"
        },
        {
          "indexed": false,
          "internalType": "enum Voting.WorkflowStatus",
          "name": "newStatus",
          "type": "uint8"
        }
      ],
      "name": "WorkflowStatusChange",
      "type": "event"
    },
    {
      "inputs": [],
      "name": "owner",
      "outputs": [
        {
          "internalType": "address",
          "name": "",
          "type": "address"
        }
      ],
      "stateMutability": "view",
      "type": "function",
      "constant": true
    },
    {
      "inputs": [],
      "name": "renounceOwnership",
      "outputs": [],
      "stateMutability": "nonpayable",
      "type": "function"
    },
    {
      "inputs": [
        {
          "internalType": "address",
          "name": "newOwner",
          "type": "address"
        }
      ],
      "name": "transferOwnership",
      "outputs": [],
      "stateMutability": "nonpayable",
      "type": "function"
    },
    {
      "inputs": [],
      "name": "winningProposalID",
      "outputs": [
        {
          "internalType": "uint8",
          "name": "",
          "type": "uint8"
        }
      ],
      "stateMutability": "view",
      "type": "function",
      "constant": true
    },
    {
      "inputs": [],
      "name": "workflowStatus",
      "outputs": [
        {
          "internalType": "enum Voting.WorkflowStatus",
          "name": "",
          "type": "uint8"
        }
      ],
      "stateMutability": "view",
      "type": "function",
      "constant": true
    },
    {
      "inputs": [
        {
          "internalType": "address",
          "name": "_addr",
          "type": "address"
        }
      ],
      "name": "getVoter",
      "outputs": [
        {
          "components": [
            {
              "internalType": "bool",
              "name": "isRegistered",
              "type": "bool"
            },
            {
              "internalType": "bool",
              "name": "hasVoted",
              "type": "bool"
            },
            {
              "internalType": "uint8",
              "name": "votedProposalId",
              "type": "uint8"
            }
          ],
          "internalType": "struct Voting.Voter",
          "name": "",
          "type": "tuple"
        }
      ],
      "stateMutability": "view",
      "type": "function",
      "constant": true
    },
    {
      "inputs": [
        {
          "internalType": "uint8",
          "name": "_id",
          "type": "uint8"
        }
      ],
      "name": "getOneProposal",
      "outputs": [
        {
          "components": [
            {
              "internalType": "string",
              "name": "description",
              "type": "string"
            },
            {
              "internalType": "uint8",
              "name": "voteCount",
              "type": "uint8"
            }
          ],
          "internalType": "struct Voting.Proposal",
          "name": "",
          "type": "tuple"
        }
      ],
      "stateMutability": "view",
      "type": "function",
      "constant": true
    },
    {
      "inputs": [
        {
          "internalType": "address",
          "name": "_addr",
          "type": "address"
        }
      ],
      "name": "addVoter",
      "outputs": [],
      "stateMutability": "nonpayable",
      "type": "function"
    },
    {
      "inputs": [
        {
          "internalType": "string",
          "name": "_desc",
          "type": "string"
        }
      ],
      "name": "addProposal",
      "outputs": [],
      "stateMutability": "nonpayable",
      "type": "function"
    },
    {
      "inputs": [
        {
          "internalType": "uint8",
          "name": "_id",
          "type": "uint8"
        }
      ],
      "name": "setVote",
      "outputs": [],
      "stateMutability": "nonpayable",
      "type": "function"
    },
    {
      "inputs": [],
      "name": "startProposalsRegistering",
      "outputs": [],
      "stateMutability": "nonpayable",
      "type": "function"
    },
    {
      "inputs": [],
      "name": "endProposalsRegistering",
      "outputs": [],
      "stateMutability": "nonpayable",
      "type": "function"
    },
    {
      "inputs": [],
      "name": "startVotingSession",
      "outputs": [],
      "stateMutability": "nonpayable",
      "type": "function"
    },
    {
      "inputs": [],
      "name": "endVotingSession",
      "outputs": [],
      "stateMutability": "nonpayable",
      "type": "function"
    },
    {
      "inputs": [],
      "name": "tallyVotes",
      "outputs": [],
      "stateMutability": "nonpayable",
      "type": "function"
    }
  ],
  "bytecode": "0x60806040523480156200001157600080fd5b5062000032620000266200003860201b60201c565b6200004060201b60201c565b62000104565b600033905090565b60008060009054906101000a900473ffffffffffffffffffffffffffffffffffffffff169050816000806101000a81548173ffffffffffffffffffffffffffffffffffffffff021916908373ffffffffffffffffffffffffffffffffffffffff1602179055508173ffffffffffffffffffffffffffffffffffffffff168173ffffffffffffffffffffffffffffffffffffffff167f8be0079c531659141344cd1fd0a4f28419497f9722a3daafe3b4186f6b6457e060405160405180910390a35050565b6125b480620001146000396000f3fe608060405234801561001057600080fd5b50600436106100f55760003560e01c8063bdc0143111610097578063ee74c67811610066578063ee74c67814610202578063f2fde38b1461020c578063f4ab9adf14610228578063f6c28b3b14610244576100f5565b8063bdc01431146101a0578063c7038a4e146101be578063c88af42f146101c8578063d4f50f98146101d2576100f5565b80638da5cb5b116100d35780638da5cb5b1461012a57806391e9b21f14610148578063a1edffa214610178578063a7bfab1614610196576100f5565b80632fdae3c5146100fa578063378a217814610116578063715018a614610120575b600080fd5b610114600480360381019061010f91906115bb565b610260565b005b61011e61053b565b005b6101286106de565b005b6101326106f2565b60405161013f9190611649565b60405180910390f35b610162600480360381019061015d919061169d565b61071b565b60405161016f91906117a6565b60405180910390f35b61018061088e565b60405161018d919061183f565b60405180910390f35b61019e6108a1565b005b6101a8610987565b6040516101b59190611869565b60405180910390f35b6101c661099a565b005b6101d0610b52565b005b6101ec60048036038101906101e791906118b0565b610c38565b6040516101f9919061193a565b60405180910390f35b61020a610d73565b005b610226600480360381019061022191906118b0565b610e59565b005b610242600480360381019061023d91906118b0565b610edc565b005b61025e6004803603810190610259919061169d565b611085565b005b60ca60003373ffffffffffffffffffffffffffffffffffffffff1673ffffffffffffffffffffffffffffffffffffffff16815260200190815260200160002060000160009054906101000a900460ff166102ef576040517f08c379a00000000000000000000000000000000000000000000000000000000081526004016102e6906119b2565b60405180910390fd5b60016005811115610303576103026117c8565b5b60c960009054906101000a900460ff166005811115610325576103246117c8565b5b14610365576040517f08c379a000000000000000000000000000000000000000000000000000000000815260040161035c90611a1e565b60405180910390fd5b60405160200161037490611a64565b60405160208183030381529060405280519060200120828260405160200161039d929190611ac0565b60405160208183030381529060405280519060200120036103f3576040517f08c379a00000000000000000000000000000000000000000000000000000000081526004016103ea90611b56565b60405180910390fd5b6103fb611507565b82828080601f016020809104026020016040519081016040528093929190818152602001838380828437600081840152601f19601f820116905080830192505050505050508160000181905250806001600060159054906101000a900460ff1660ff166064811061046f5761046e611b76565b5b6002020160008201518160000190816104889190611dea565b5060208201518160010160006101000a81548160ff021916908360ff1602179055509050506001600060158282829054906101000a900460ff166104cc9190611eeb565b92506101000a81548160ff021916908360ff1602179055507f97f460959e4f26faed2e7db699104bcada89a6013fbadbb8067ca93d9326cbc46001600060159054906101000a900460ff166105219190611f20565b60405161052e9190611869565b60405180910390a1505050565b6105436113bd565b60046005811115610557576105566117c8565b5b60c960009054906101000a900460ff166005811115610579576105786117c8565b5b146105b9576040517f08c379a00000000000000000000000000000000000000000000000000000000081526004016105b090611fc7565b60405180910390fd5b600080600090505b600060159054906101000a900460ff1660ff168160ff1610156106595760018260ff16606481106105f5576105f4611b76565b5b6002020160010160009054906101000a900460ff1660ff1660018260ff166064811061062457610623611b76565b5b6002020160010160009054906101000a900460ff1660ff161115610646578091505b808061065190611fe7565b9150506105c1565b5080600060146101000a81548160ff021916908360ff160217905550600560c960006101000a81548160ff0219169083600581111561069b5761069a6117c8565b5b02179055507f0a97a4ee45751e2abf3e4fc8946939630b11b371ea8ae39ccdc3056e98f5cc3f600460056040516106d3929190612010565b60405180910390a150565b6106e66113bd565b6106f0600061143b565b565b60008060009054906101000a900473ffffffffffffffffffffffffffffffffffffffff16905090565b610723611507565b60ca60003373ffffffffffffffffffffffffffffffffffffffff1673ffffffffffffffffffffffffffffffffffffffff16815260200190815260200160002060000160009054906101000a900460ff166107b2576040517f08c379a00000000000000000000000000000000000000000000000000000000081526004016107a9906119b2565b60405180910390fd5b60018260ff16606481106107c9576107c8611b76565b5b600202016040518060400160405290816000820180546107e890611c03565b80601f016020809104026020016040519081016040528092919081815260200182805461081490611c03565b80156108615780601f1061083657610100808354040283529160200191610861565b820191906000526020600020905b81548152906001019060200180831161084457829003601f168201915b505050505081526020016001820160009054906101000a900460ff1660ff1660ff16815250509050919050565b60c960009054906101000a900460ff1681565b6108a96113bd565b600360058111156108bd576108bc6117c8565b5b60c960009054906101000a900460ff1660058111156108df576108de6117c8565b5b1461091f576040517f08c379a0000000000000000000000000000000000000000000000000000000008152600401610916906120ab565b60405180910390fd5b600460c960006101000a81548160ff02191690836005811115610945576109446117c8565b5b02179055507f0a97a4ee45751e2abf3e4fc8946939630b11b371ea8ae39ccdc3056e98f5cc3f6003600460405161097d929190612010565b60405180910390a1565b600060149054906101000a900460ff1681565b6109a26113bd565b600060058111156109b6576109b56117c8565b5b60c960009054906101000a900460ff1660058111156109d8576109d76117c8565b5b14610a18576040517f08c379a0000000000000000000000000000000000000000000000000000000008152600401610a0f9061213d565b60405180910390fd5b600160c960006101000a81548160ff02191690836005811115610a3e57610a3d6117c8565b5b0217905550610a4b611507565b6040518060400160405280600781526020017f47454e455349530000000000000000000000000000000000000000000000000081525081600001819052506001600060158282829054906101000a900460ff16610aa89190611eeb565b92506101000a81548160ff021916908360ff160217905550806001600060648110610ad657610ad5611b76565b5b600202016000820151816000019081610aef9190611dea565b5060208201518160010160006101000a81548160ff021916908360ff1602179055509050507f0a97a4ee45751e2abf3e4fc8946939630b11b371ea8ae39ccdc3056e98f5cc3f60006001604051610b47929190612010565b60405180910390a150565b610b5a6113bd565b60016005811115610b6e57610b6d6117c8565b5b60c960009054906101000a900460ff166005811115610b9057610b8f6117c8565b5b14610bd0576040517f08c379a0000000000000000000000000000000000000000000000000000000008152600401610bc7906121cf565b60405180910390fd5b600260c960006101000a81548160ff02191690836005811115610bf657610bf56117c8565b5b02179055507f0a97a4ee45751e2abf3e4fc8946939630b11b371ea8ae39ccdc3056e98f5cc3f60016002604051610c2e929190612010565b60405180910390a1565b610c40611524565b60ca60003373ffffffffffffffffffffffffffffffffffffffff1673ffffffffffffffffffffffffffffffffffffffff16815260200190815260200160002060000160009054906101000a900460ff16610ccf576040517f08c379a0000000000000000000000000000000000000000000000000000000008152600401610cc6906119b2565b60405180910390fd5b60ca60008373ffffffffffffffffffffffffffffffffffffffff1673ffffffffffffffffffffffffffffffffffffffff1681526020019081526020016000206040518060600160405290816000820160009054906101000a900460ff161515151581526020016000820160019054906101000a900460ff161515151581526020016000820160029054906101000a900460ff1660ff1660ff16815250509050919050565b610d7b6113bd565b60026005811115610d8f57610d8e6117c8565b5b60c960009054906101000a900460ff166005811115610db157610db06117c8565b5b14610df1576040517f08c379a0000000000000000000000000000000000000000000000000000000008152600401610de890612261565b60405180910390fd5b600360c960006101000a81548160ff02191690836005811115610e1757610e166117c8565b5b02179055507f0a97a4ee45751e2abf3e4fc8946939630b11b371ea8ae39ccdc3056e98f5cc3f60026003604051610e4f929190612010565b60405180910390a1565b610e616113bd565b600073ffffffffffffffffffffffffffffffffffffffff168173ffffffffffffffffffffffffffffffffffffffff1603610ed0576040517f08c379a0000000000000000000000000000000000000000000000000000000008152600401610ec7906122f3565b60405180910390fd5b610ed98161143b565b50565b610ee46113bd565b60006005811115610ef857610ef76117c8565b5b60c960009054906101000a900460ff166005811115610f1a57610f196117c8565b5b14610f5a576040517f08c379a0000000000000000000000000000000000000000000000000000000008152600401610f5190612385565b60405180910390fd5b6001151560ca60008373ffffffffffffffffffffffffffffffffffffffff1673ffffffffffffffffffffffffffffffffffffffff16815260200190815260200160002060000160009054906101000a900460ff16151503610ff0576040517f08c379a0000000000000000000000000000000000000000000000000000000008152600401610fe7906123f1565b60405180910390fd5b600160ca60008373ffffffffffffffffffffffffffffffffffffffff1673ffffffffffffffffffffffffffffffffffffffff16815260200190815260200160002060000160006101000a81548160ff0219169083151502179055507fb6be2187d059cc2a55fe29e0e503b566e1e0f8c8780096e185429350acffd3dd8160405161107a9190611649565b60405180910390a150565b60ca60003373ffffffffffffffffffffffffffffffffffffffff1673ffffffffffffffffffffffffffffffffffffffff16815260200190815260200160002060000160009054906101000a900460ff16611114576040517f08c379a000000000000000000000000000000000000000000000000000000000815260040161110b906119b2565b60405180910390fd5b60036005811115611128576111276117c8565b5b60c960009054906101000a900460ff16600581111561114a576111496117c8565b5b1461118a576040517f08c379a0000000000000000000000000000000000000000000000000000000008152600401611181906120ab565b60405180910390fd5b6001151560ca60003373ffffffffffffffffffffffffffffffffffffffff1673ffffffffffffffffffffffffffffffffffffffff16815260200190815260200160002060000160019054906101000a900460ff16151503611220576040517f08c379a00000000000000000000000000000000000000000000000000000000081526004016112179061245d565b60405180910390fd5b600060159054906101000a900460ff1660ff168160ff1610611277576040517f08c379a000000000000000000000000000000000000000000000000000000000815260040161126e906124c9565b60405180910390fd5b8060ca60003373ffffffffffffffffffffffffffffffffffffffff1673ffffffffffffffffffffffffffffffffffffffff16815260200190815260200160002060000160026101000a81548160ff021916908360ff160217905550600160ca60003373ffffffffffffffffffffffffffffffffffffffff1673ffffffffffffffffffffffffffffffffffffffff16815260200190815260200160002060000160016101000a81548160ff02191690831515021790555060018160ff166064811061134457611343611b76565b5b60020201600101600081819054906101000a900460ff168092919061136890611fe7565b91906101000a81548160ff021916908360ff160217905550507f14075e33dffdc00c1fcaf75d0f86d667170be57fb566b12b41b499e5fa53b12533826040516113b29291906124e9565b60405180910390a150565b6113c56114ff565b73ffffffffffffffffffffffffffffffffffffffff166113e36106f2565b73ffffffffffffffffffffffffffffffffffffffff1614611439576040517f08c379a00000000000000000000000000000000000000000000000000000000081526004016114309061255e565b60405180910390fd5b565b60008060009054906101000a900473ffffffffffffffffffffffffffffffffffffffff169050816000806101000a81548173ffffffffffffffffffffffffffffffffffffffff021916908373ffffffffffffffffffffffffffffffffffffffff1602179055508173ffffffffffffffffffffffffffffffffffffffff168173ffffffffffffffffffffffffffffffffffffffff167f8be0079c531659141344cd1fd0a4f28419497f9722a3daafe3b4186f6b6457e060405160405180910390a35050565b600033905090565b604051806040016040528060608152602001600060ff1681525090565b6040518060600160405280600015158152602001600015158152602001600060ff1681525090565b600080fd5b600080fd5b600080fd5b600080fd5b600080fd5b60008083601f84011261157b5761157a611556565b5b8235905067ffffffffffffffff8111156115985761159761155b565b5b6020830191508360018202830111156115b4576115b3611560565b5b9250929050565b600080602083850312156115d2576115d161154c565b5b600083013567ffffffffffffffff8111156115f0576115ef611551565b5b6115fc85828601611565565b92509250509250929050565b600073ffffffffffffffffffffffffffffffffffffffff82169050919050565b600061163382611608565b9050919050565b61164381611628565b82525050565b600060208201905061165e600083018461163a565b92915050565b600060ff82169050919050565b61167a81611664565b811461168557600080fd5b50565b60008135905061169781611671565b92915050565b6000602082840312156116b3576116b261154c565b5b60006116c184828501611688565b91505092915050565b600081519050919050565b600082825260208201905092915050565b60005b838110156117045780820151818401526020810190506116e9565b60008484015250505050565b6000601f19601f8301169050919050565b600061172c826116ca565b61173681856116d5565b93506117468185602086016116e6565b61174f81611710565b840191505092915050565b61176381611664565b82525050565b600060408301600083015184820360008601526117868282611721565b915050602083015161179b602086018261175a565b508091505092915050565b600060208201905081810360008301526117c08184611769565b905092915050565b7f4e487b7100000000000000000000000000000000000000000000000000000000600052602160045260246000fd5b60068110611808576118076117c8565b5b50565b6000819050611819826117f7565b919050565b60006118298261180b565b9050919050565b6118398161181e565b82525050565b60006020820190506118546000830184611830565b92915050565b61186381611664565b82525050565b600060208201905061187e600083018461185a565b92915050565b61188d81611628565b811461189857600080fd5b50565b6000813590506118aa81611884565b92915050565b6000602082840312156118c6576118c561154c565b5b60006118d48482850161189b565b91505092915050565b60008115159050919050565b6118f2816118dd565b82525050565b60608201600082015161190e60008501826118e9565b50602082015161192160208501826118e9565b506040820151611934604085018261175a565b50505050565b600060608201905061194f60008301846118f8565b92915050565b600082825260208201905092915050565b7f596f75277265206e6f74206120766f7465720000000000000000000000000000600082015250565b600061199c601283611955565b91506119a782611966565b602082019050919050565b600060208201905081810360008301526119cb8161198f565b9050919050565b7f50726f706f73616c7320617265206e6f7420616c6c6f77656420796574000000600082015250565b6000611a08601d83611955565b9150611a13826119d2565b602082019050919050565b60006020820190508181036000830152611a37816119fb565b9050919050565b50565b6000611a4e600083611955565b9150611a5982611a3e565b600082019050919050565b60006020820190508181036000830152611a7d81611a41565b9050919050565b82818337600083830152505050565b6000611a9f8385611955565b9350611aac838584611a84565b611ab583611710565b840190509392505050565b60006020820190508181036000830152611adb818486611a93565b90509392505050565b7f566f7573206e6520706f7576657a20706173206e65207269656e2070726f706f60008201527f7365720000000000000000000000000000000000000000000000000000000000602082015250565b6000611b40602383611955565b9150611b4b82611ae4565b604082019050919050565b60006020820190508181036000830152611b6f81611b33565b9050919050565b7f4e487b7100000000000000000000000000000000000000000000000000000000600052603260045260246000fd5b7f4e487b7100000000000000000000000000000000000000000000000000000000600052604160045260246000fd5b7f4e487b7100000000000000000000000000000000000000000000000000000000600052602260045260246000fd5b60006002820490506001821680611c1b57607f821691505b602082108103611c2e57611c2d611bd4565b5b50919050565b60008190508160005260206000209050919050565b60006020601f8301049050919050565b600082821b905092915050565b600060088302611c967fffffffffffffffffffffffffffffffffffffffffffffffffffffffffffffffff82611c59565b611ca08683611c59565b95508019841693508086168417925050509392505050565b6000819050919050565b6000819050919050565b6000611ce7611ce2611cdd84611cb8565b611cc2565b611cb8565b9050919050565b6000819050919050565b611d0183611ccc565b611d15611d0d82611cee565b848454611c66565b825550505050565b600090565b611d2a611d1d565b611d35818484611cf8565b505050565b5b81811015611d5957611d4e600082611d22565b600181019050611d3b565b5050565b601f821115611d9e57611d6f81611c34565b611d7884611c49565b81016020851015611d87578190505b611d9b611d9385611c49565b830182611d3a565b50505b505050565b600082821c905092915050565b6000611dc160001984600802611da3565b1980831691505092915050565b6000611dda8383611db0565b9150826002028217905092915050565b611df3826116ca565b67ffffffffffffffff811115611e0c57611e0b611ba5565b5b611e168254611c03565b611e21828285611d5d565b600060209050601f831160018114611e545760008415611e42578287015190505b611e4c8582611dce565b865550611eb4565b601f198416611e6286611c34565b60005b82811015611e8a57848901518255600182019150602085019450602081019050611e65565b86831015611ea75784890151611ea3601f891682611db0565b8355505b6001600288020188555050505b505050505050565b7f4e487b7100000000000000000000000000000000000000000000000000000000600052601160045260246000fd5b6000611ef682611664565b9150611f0183611664565b9250828201905060ff811115611f1a57611f19611ebc565b5b92915050565b6000611f2b82611664565b9150611f3683611664565b9250828203905060ff811115611f4f57611f4e611ebc565b5b92915050565b7f43757272656e7420737461747573206973206e6f7420766f74696e672073657360008201527f73696f6e20656e64656400000000000000000000000000000000000000000000602082015250565b6000611fb1602a83611955565b9150611fbc82611f55565b604082019050919050565b60006020820190508181036000830152611fe081611fa4565b9050919050565b6000611ff282611664565b915060ff820361200557612004611ebc565b5b600182019050919050565b60006040820190506120256000830185611830565b6120326020830184611830565b9392505050565b7f566f74696e672073657373696f6e20686176656e74207374617274656420796560008201527f7400000000000000000000000000000000000000000000000000000000000000602082015250565b6000612095602183611955565b91506120a082612039565b604082019050919050565b600060208201905081810360008301526120c481612088565b9050919050565b7f5265676973746572696e672070726f706f73616c732063616e7420626520737460008201527f6172746564206e6f770000000000000000000000000000000000000000000000602082015250565b6000612127602983611955565b9150612132826120cb565b604082019050919050565b600060208201905081810360008301526121568161211a565b9050919050565b7f5265676973746572696e672070726f706f73616c7320686176656e742073746160008201527f7274656420796574000000000000000000000000000000000000000000000000602082015250565b60006121b9602883611955565b91506121c48261215d565b604082019050919050565b600060208201905081810360008301526121e8816121ac565b9050919050565b7f5265676973746572696e672070726f706f73616c73207068617365206973206e60008201527f6f742066696e6973686564000000000000000000000000000000000000000000602082015250565b600061224b602b83611955565b9150612256826121ef565b604082019050919050565b6000602082019050818103600083015261227a8161223e565b9050919050565b7f4f776e61626c653a206e6577206f776e657220697320746865207a65726f206160008201527f6464726573730000000000000000000000000000000000000000000000000000602082015250565b60006122dd602683611955565b91506122e882612281565b604082019050919050565b6000602082019050818103600083015261230c816122d0565b9050919050565b7f566f7465727320726567697374726174696f6e206973206e6f74206f70656e2060008201527f7965740000000000000000000000000000000000000000000000000000000000602082015250565b600061236f602383611955565b915061237a82612313565b604082019050919050565b6000602082019050818103600083015261239e81612362565b9050919050565b7f416c726561647920726567697374657265640000000000000000000000000000600082015250565b60006123db601283611955565b91506123e6826123a5565b602082019050919050565b6000602082019050818103600083015261240a816123ce565b9050919050565b7f596f75206861766520616c726561647920766f74656400000000000000000000600082015250565b6000612447601683611955565b915061245282612411565b602082019050919050565b600060208201905081810360008301526124768161243a565b9050919050565b7f50726f706f73616c206e6f7420666f756e640000000000000000000000000000600082015250565b60006124b3601283611955565b91506124be8261247d565b602082019050919050565b600060208201905081810360008301526124e2816124a6565b9050919050565b60006040820190506124fe600083018561163a565b61250b602083018461185a565b9392505050565b7f4f776e61626c653a2063616c6c6572206973206e6f7420746865206f776e6572600082015250565b6000612548602083611955565b915061255382612512565b602082019050919050565b600060208201905081810360008301526125778161253b565b905091905056fea26469706673582212202df44b41cda2d17dcab6e4631129a0ce78c1e96f046ac9f7e6f4fec346a921c264736f6c63430008110033",
  "immutableReferences": {},
  "source": "// SPDX-License-Identifier: MIT\r\npragma solidity 0.8.17;\r\n\r\nimport \"@openzeppelin/contracts/access/Ownable.sol\";\r\n\r\n/*\r\n * @author Philippe Paulos\r\n * @notice Voting contract\r\n \r\n * This contract is used to manage a voting session, allowing people to propose and vote for ideas\r\n * The session is managed by the owner of the contract\r\n */\r\ncontract Voting is Ownable {\r\n    uint8 public winningProposalID;\r\n    uint8 numProposals;\r\n    Proposal[100] proposalsArray;\r\n\r\n    struct Voter {\r\n        bool isRegistered;\r\n        bool hasVoted;\r\n        uint8 votedProposalId;\r\n    }\r\n\r\n    struct Proposal {\r\n        string description;\r\n        uint8 voteCount;\r\n    }\r\n\r\n    enum WorkflowStatus {\r\n        RegisteringVoters,\r\n        ProposalsRegistrationStarted,\r\n        ProposalsRegistrationEnded,\r\n        VotingSessionStarted,\r\n        VotingSessionEnded,\r\n        VotesTallied\r\n    }\r\n\r\n    WorkflowStatus public workflowStatus;\r\n    mapping(address => Voter) voters;\r\n\r\n    event VoterRegistered(address voterAddress);\r\n    event WorkflowStatusChange(\r\n        WorkflowStatus previousStatus,\r\n        WorkflowStatus newStatus\r\n    );\r\n    event ProposalRegistered(uint8 proposalId);\r\n    event Voted(address voter, uint8 proposalId);\r\n\r\n    modifier onlyVoters() {\r\n        require(voters[msg.sender].isRegistered, \"You're not a voter\");\r\n        _;\r\n    }\r\n\r\n    /**\r\n     * @dev Gets the Voter struct of a given `_addr`\r\n     * @param _addr searched address\r\n     * @return Voter\r\n     *\r\n     * Requirements:\r\n     *\r\n     * - `address` cannot be a non voter\r\n     */\r\n    function getVoter(address _addr)\r\n        external\r\n        view\r\n        onlyVoters\r\n        returns (Voter memory)\r\n    {\r\n        return voters[_addr];\r\n    }\r\n\r\n    /**\r\n     * @dev Gets the Proposal struct for a given `_id`\r\n     * @param _id searched `proposalId`\r\n     * @return Proposal\r\n     *\r\n     * Requirements:\r\n     *\r\n     * - `address` cannot be a non voter\r\n     */\r\n    function getOneProposal(uint8 _id)\r\n        external\r\n        view\r\n        onlyVoters\r\n        returns (Proposal memory)\r\n    {\r\n        return proposalsArray[_id];\r\n    }\r\n\r\n    /**\r\n     * @dev Adds a new voter `_addr` to the session\r\n     * @param _addr address to register\r\n     *\r\n     *\r\n     * Emits a {VoterRegistered} event.\r\n     *\r\n     * Requirements:\r\n     *\r\n     * - `address` cannot be already registered\r\n     * - `msg.sender` should be the owner\r\n     * - `worklowStatus` should be WorkflowStatus.RegisteringVoters\r\n     */\r\n    function addVoter(address _addr) external onlyOwner {\r\n        require(\r\n            workflowStatus == WorkflowStatus.RegisteringVoters,\r\n            \"Voters registration is not open yet\"\r\n        );\r\n        require(voters[_addr].isRegistered != true, \"Already registered\");\r\n\r\n        voters[_addr].isRegistered = true;\r\n        emit VoterRegistered(_addr);\r\n    }\r\n\r\n    /**\r\n     * @dev Adds a proposal named `desc` to the session\r\n     * @param _desc description of the new proposal\r\n     *\r\n     * Emits a {ProposalRegistered} event.\r\n     *\r\n     * Requirements:\r\n     *\r\n     * - `_desc` cannot be empty\r\n     * - `msg.sender` should be a voter\r\n     * - `worklowStatus` should be WorkflowStatus.ProposalsRegistrationStarted\r\n     */\r\n    function addProposal(string calldata _desc) external onlyVoters {\r\n        require(\r\n            workflowStatus == WorkflowStatus.ProposalsRegistrationStarted,\r\n            \"Proposals are not allowed yet\"\r\n        );\r\n        require(\r\n            keccak256(abi.encode(_desc)) != keccak256(abi.encode(\"\")),\r\n            \"Vous ne pouvez pas ne rien proposer\"\r\n        ); // facultatif\r\n        // voir que desc est different des autres\r\n\r\n        Proposal memory proposal;\r\n        proposal.description = _desc;\r\n        proposalsArray[numProposals] = proposal;\r\n        numProposals += 1;\r\n        emit ProposalRegistered(numProposals - 1);\r\n    }\r\n\r\n    /**\r\n     * @dev Vote for an existing `_id`\r\n     * @param _id `proposalId` to vote for\r\n     *\r\n     * Emits a {Voted} event.\r\n     *\r\n     * Requirements:\r\n     *\r\n     * - `_id` should exists\r\n     * - `msg.sender` should be a voter\r\n     * - `worklowStatus` should be WorkflowStatus.VotingSessionStarted\r\n     * - `msg.sender` should be owner\r\n     */\r\n    function setVote(uint8 _id) external onlyVoters {\r\n        require(\r\n            workflowStatus == WorkflowStatus.VotingSessionStarted,\r\n            \"Voting session havent started yet\"\r\n        );\r\n        require(voters[msg.sender].hasVoted != true, \"You have already voted\");\r\n        require(_id < numProposals, \"Proposal not found\");\r\n\r\n        voters[msg.sender].votedProposalId = _id;\r\n        voters[msg.sender].hasVoted = true;\r\n        proposalsArray[_id].voteCount++;\r\n\r\n        emit Voted(msg.sender, _id);\r\n    }\r\n\r\n    /**\r\n     * @dev Sets the `workflowStatus` to `ProposalsRegistrationStarted`\r\n     *\r\n     * Emits a {WorkflowStatusChange} event.\r\n     *\r\n     * Requirements:\r\n     *\r\n     * - `workflowStatus` should be WorkflowStatus.RegisteringVoters\r\n     * - `msg.sender` should be owner\r\n     */\r\n    function startProposalsRegistering() external onlyOwner {\r\n        require(\r\n            workflowStatus == WorkflowStatus.RegisteringVoters,\r\n            \"Registering proposals cant be started now\"\r\n        );\r\n        workflowStatus = WorkflowStatus.ProposalsRegistrationStarted;\r\n\r\n        Proposal memory proposal;\r\n        proposal.description = \"GENESIS\";\r\n        numProposals += 1;\r\n        proposalsArray[0] = proposal;\r\n\r\n        emit WorkflowStatusChange(\r\n            WorkflowStatus.RegisteringVoters,\r\n            WorkflowStatus.ProposalsRegistrationStarted\r\n        );\r\n    }\r\n\r\n    /**\r\n     * @dev Sets the `workflowStatus` to `ProposalsRegistrationEnded`\r\n     *\r\n     * Emits a {WorkflowStatusChange} event.\r\n     *\r\n     * Requirements:\r\n     *\r\n     * - `workflowStatus` should be WorkflowStatus.ProposalsRegistrationStarted\r\n     * - `msg.sender` should be owner\r\n     */\r\n    function endProposalsRegistering() external onlyOwner {\r\n        require(\r\n            workflowStatus == WorkflowStatus.ProposalsRegistrationStarted,\r\n            \"Registering proposals havent started yet\"\r\n        );\r\n        workflowStatus = WorkflowStatus.ProposalsRegistrationEnded;\r\n        emit WorkflowStatusChange(\r\n            WorkflowStatus.ProposalsRegistrationStarted,\r\n            WorkflowStatus.ProposalsRegistrationEnded\r\n        );\r\n    }\r\n\r\n    /**\r\n     * @dev Sets the `workflowStatus` to `VotingSessionStarted`\r\n     *\r\n     * Emits a {WorkflowStatusChange} event.\r\n     *\r\n     * Requirements:\r\n     *\r\n     * - `workflowStatus` should be WorkflowStatus.ProposalsRegistrationEnded\r\n     * - `msg.sender` should be owner\r\n     */\r\n    function startVotingSession() external onlyOwner {\r\n        require(\r\n            workflowStatus == WorkflowStatus.ProposalsRegistrationEnded,\r\n            \"Registering proposals phase is not finished\"\r\n        );\r\n        workflowStatus = WorkflowStatus.VotingSessionStarted;\r\n        emit WorkflowStatusChange(\r\n            WorkflowStatus.ProposalsRegistrationEnded,\r\n            WorkflowStatus.VotingSessionStarted\r\n        );\r\n    }\r\n\r\n    /**\r\n     * @dev Sets the `workflowStatus` to `VotingSessionEnded`\r\n     *\r\n     * Emits a {WorkflowStatusChange} event.\r\n     *\r\n     * Requirements:\r\n     *\r\n     * - `workflowStatus` should be WorkflowStatus.VotingSessionStarted\r\n     * - `msg.sender` should be owner\r\n     */\r\n    function endVotingSession() external onlyOwner {\r\n        require(\r\n            workflowStatus == WorkflowStatus.VotingSessionStarted,\r\n            \"Voting session havent started yet\"\r\n        );\r\n        workflowStatus = WorkflowStatus.VotingSessionEnded;\r\n        emit WorkflowStatusChange(\r\n            WorkflowStatus.VotingSessionStarted,\r\n            WorkflowStatus.VotingSessionEnded\r\n        );\r\n    }\r\n\r\n    /**\r\n     * @dev Tally the winner setting the `winningProposalId`\r\n     *\r\n     * Emits a {WorkflowStatusChange} event.\r\n     *\r\n     * Requirements:\r\n     *\r\n     * - `workflowStatus` should be WorkflowStatus.VotingSessionEnded\r\n     * - `msg.sender` should be owner\r\n     */\r\n    function tallyVotes() external onlyOwner {\r\n        require(\r\n            workflowStatus == WorkflowStatus.VotingSessionEnded,\r\n            \"Current status is not voting session ended\"\r\n        );\r\n        uint8 _winningProposalId;\r\n        for (uint8 p = 0; p < numProposals; p++) {\r\n            if (\r\n                proposalsArray[p].voteCount >\r\n                proposalsArray[_winningProposalId].voteCount\r\n            ) {\r\n                _winningProposalId = p;\r\n            }\r\n        }\r\n        winningProposalID = _winningProposalId;\r\n\r\n        workflowStatus = WorkflowStatus.VotesTallied;\r\n        emit WorkflowStatusChange(\r\n            WorkflowStatus.VotingSessionEnded,\r\n            WorkflowStatus.VotesTallied\r\n        );\r\n    }\r\n}\r\n",
  "sourcePath": "C:\\Users\\mhima\\Desktop\\vote\\votingfinal\\truffle\\contracts\\Voting.sol",
  "compiler": {
    "name": "solc",
    "version": "0.8.17+commit.8df45f5f.Emscripten.clang"
  },
  "schemaVersion": "3.4.11",
  "updatedAt": "2022-12-12T00:26:45.384Z",
  "networkType": "ethereum",
  "devdoc": {
    "kind": "dev",
    "methods": {
      "addProposal(string)": {
        "details": "Adds a proposal named `desc` to the session",
        "params": {
          "_desc": "description of the new proposal Emits a {ProposalRegistered} event. Requirements: - `_desc` cannot be empty - `msg.sender` should be a voter - `worklowStatus` should be WorkflowStatus.ProposalsRegistrationStarted"
        }
      },
      "addVoter(address)": {
        "details": "Adds a new voter `_addr` to the session",
        "params": {
          "_addr": "address to register Emits a {VoterRegistered} event. Requirements: - `address` cannot be already registered - `msg.sender` should be the owner - `worklowStatus` should be WorkflowStatus.RegisteringVoters"
        }
      },
      "endProposalsRegistering()": {
        "details": "Sets the `workflowStatus` to `ProposalsRegistrationEnded` Emits a {WorkflowStatusChange} event. Requirements: - `workflowStatus` should be WorkflowStatus.ProposalsRegistrationStarted - `msg.sender` should be owner"
      },
      "endVotingSession()": {
        "details": "Sets the `workflowStatus` to `VotingSessionEnded` Emits a {WorkflowStatusChange} event. Requirements: - `workflowStatus` should be WorkflowStatus.VotingSessionStarted - `msg.sender` should be owner"
      },
      "getOneProposal(uint8)": {
        "details": "Gets the Proposal struct for a given `_id`",
        "params": {
          "_id": "searched `proposalId`"
        },
        "returns": {
          "_0": "Proposal Requirements: - `address` cannot be a non voter"
        }
      },
      "getVoter(address)": {
        "details": "Gets the Voter struct of a given `_addr`",
        "params": {
          "_addr": "searched address"
        },
        "returns": {
          "_0": "Voter Requirements: - `address` cannot be a non voter"
        }
      },
      "owner()": {
        "details": "Returns the address of the current owner."
      },
      "renounceOwnership()": {
        "details": "Leaves the contract without owner. It will not be possible to call `onlyOwner` functions anymore. Can only be called by the current owner. NOTE: Renouncing ownership will leave the contract without an owner, thereby removing any functionality that is only available to the owner."
      },
      "setVote(uint8)": {
        "details": "Vote for an existing `_id`",
        "params": {
          "_id": "`proposalId` to vote for Emits a {Voted} event. Requirements: - `_id` should exists - `msg.sender` should be a voter - `worklowStatus` should be WorkflowStatus.VotingSessionStarted - `msg.sender` should be owner"
        }
      },
      "startProposalsRegistering()": {
        "details": "Sets the `workflowStatus` to `ProposalsRegistrationStarted` Emits a {WorkflowStatusChange} event. Requirements: - `workflowStatus` should be WorkflowStatus.RegisteringVoters - `msg.sender` should be owner"
      },
      "startVotingSession()": {
        "details": "Sets the `workflowStatus` to `VotingSessionStarted` Emits a {WorkflowStatusChange} event. Requirements: - `workflowStatus` should be WorkflowStatus.ProposalsRegistrationEnded - `msg.sender` should be owner"
      },
      "tallyVotes()": {
        "details": "Tally the winner setting the `winningProposalId` Emits a {WorkflowStatusChange} event. Requirements: - `workflowStatus` should be WorkflowStatus.VotingSessionEnded - `msg.sender` should be owner"
      },
      "transferOwnership(address)": {
        "details": "Transfers ownership of the contract to a new account (`newOwner`). Can only be called by the current owner."
      }
    },
    "version": 1
  },
  "userdoc": {
    "kind": "user",
    "methods": {},
    "version": 1
  }
}